:03000000020423D4
:0C042300787FE4F6D8FD75811C02046AA5
:04066000021600007E
:100391001204AFE5174516600302041DFF1206465D
:1003A1007508008F097F021206467510008F117FB4
:1003B100041206467514008F157F06120646750A4B
:1003C100008F0B7F071206467512008F137F0812EC
:1003D1000646750E008F0F7F09120646750C008FB9
:1003E1000DAD097B027F0A120574AD117B027F07F7
:1003F100120574AD157B027F04120574AF0B120553
:10040100D4AD137B017F09120574AD0F7B017F060B
:10041100120574AD0D7B017F0312057412000302F6
:02042100039442
:1004FB0020323030302D30302D30302D58585820A0
:10050B00002020202030303A30303A30302020206C
:10051B002000585858204D6F6E20547565735765E1
:10052B006420546875724672692053617420537548
:02053B006E2030
:1005A500C2B68F807F027E001205B6D2B47F037E6D
:0105B5000045
:1005B600D3EF9400EE940040147D7B7C00ED1D701B
:0D05C600011CED4C70F7EF1F70E61E80E386
:0105D3002205
:1004AF00C2A6C2A7C2B47F381206797F0C12067992
:1004BF007F061206797F80120679E4F51CE51C9001
:1004CF0004FB93FF120681051CE51CC3941040ED3D
:1004DF007FC0120679E4F51CE51C90050C93FF1202
:0B04EF000681051CE51CC3941040EDC5
:0104FA0022DF
:08067900C2B51205A5C2B422AE
:08068100D2B51205A5C2B42296
:02057400AE07D0
:10057600ED75F00A84F51CED75F00A84A9F0BB014F
:1005860005EE24808006BB0207EE24C0FF12067922
:0F059600E51C2430FF120681E92430FF020681A4
:0205D400AB0773
:1005D6007F8C120679E4FAEB25E025E0241DF582EE
:1005E600E43405F583E5822AF582E43583F583E470
:0905F60093FF1206810ABA04DE2B
:0105FF0022D9
:060629000F12062FFD0F69
:10062F00C294D295D297D2968F80C295C2968D8062
:07063F00D296D295D294225D
:10064600D295D297D296C2948F80C295C297758062
:09065600FFAF80D297D295D29437
:01065F002278
:100600007D32E4FF12062A7D3B1206297D11120677
:10061000297D040F12062F7D150F12062F7D080F5E
:0906200012062F7D0E0F02062FB9
:0806640002180000021A000058
:0C066D00C2A37F327E001205B6D2A32289
:10053D007FF47E011205B6C2A37F2C7E011205B693
:10054D00D2A37F2C7E011205B6C2A37F2C7E011291
:10055D0005B6D2A37F2C7E011205B6C2A37F2C7ED9
:07056D00011205B6D2A32222
:1000030030A0030200F27F0A7E001205B630A0037F
:100013000200F230A0FD0519E51970020518120659
:100023006DE519640145187012F5167517017FCA3D
:100033001206797F0F12067912053DE51964024510
:100043001870057FC7120679E51964034518700512
:100053007FC4120679E51964044518700B7F8C126E
:100063000679751A00751B01E51964054518700BAF
:100073007F89120679751A00751B02E51964064516
:1000830018700B7F86120679751A00751B03E51924
:1000930064074518700B7F83120679751A00751B68
:1000A30004E51964084518704612053DE4F518F592
:1000B30019F516F517F51AF51B7F0C120679AD091C
:1000C300E4FF12062FAD117F0212062FAD157F0438
:1000D30012062FAD0B7F0612062FAD137F071206F4
:1000E3002FAD0F7F0812062FAD0D7F0912062FE5E6
:1000F300194518700302039030A1030202327F05F1
:100103007E001205B630A10302023230A1FD1206B1
:100113006DE51B451A7078E51964014518702005D3
:1001230009E50970020508643C45087004F508F503
:1001330009AD097B027F0A1205747FCA120679E5AD
:10014300196402451870200511E511700205106449
:100153003C45107004F510F511AD117B027F0712B9
:1001630005747FC7120679E51964034518702005E5
:1001730015E51570020514641845147004F514F59B
:1001830015AD157B027F041205747FC4120679E551
:100193001B6401451A701D050BE50B7002050A640B
:1001A30008450A7005F50A750B01AF0B1205D47FDC
:1001B3008C120679E51B6402451A70210513E513B9
:1001C30070020512642045127005F512751301AD16
:1001D300137B017F091205747F89120679E51B647D
:1001E30003451A7021050FE50F7002050E640D45D6
:1001F3000E7005F50E750F01AD0F7B017F0612051D
:10020300747F86120679E51B6404451A7021050D77
:10021300E50D7002050C641E450C7005F50C750D9B
:1002230001AD0D7B017F031205747F8312067930C4
:10023300A2030203907F057E001205B630A20302DB
:10024300039030A2FD12066DE51B451A60030202FE
:10025300F0E51964014518702CE5091509700215BC
:1002630008E509643C45086009C3E5086480948097
:100273005005E4F508F509AD097B027F0A12057400
:100283007FCA120679E51964024518702CE5111529
:100293001170021510E511643C45106009C3E510A7
:1002A300648094805005E4F510F511AD117B027F55
:1002B300071205747FC7120679E5196403451870A0
:1002C3002CE515151570021514E515641845146011
:1002D30009C3E514648094805005E4F514F515AD65
:1002E300157B027F041205747FC4120679E51B6433
:1002F30001451A701DE50B150B7002150AE50B4538
:100303000A7005F50A750B07AF0B1205D47F8C1223
:100313000679E51B6402451A7021E5131513700273
:100323001512E51345127005F51275131FAD137BF6
:10033300017F091205747F89120679E51B64034561
:100343001A7021E50F150F7002150EE50F450E709B
:1003530005F50E750F0CAD0F7B017F061205747F3B
:1003630086120679E51B6404451A7021E50D150D07
:100373007002150CE50D450C7005F50C750D1EADE1
:0D0383000D7B017F031205747F8312067944
:01039000224A
:10042F00020391E493A3F8E493A34003F68001F24F
:10043F0008DFF48029E493A3F85407240CC8C333CE
:10044F00C4540F4420C8834004F456800146F6DF9D
:10045F00E4800B0102040810204080900660E47EC7
:10046F00019360BCA3FF543F30E509541FFEE49392
:10047F00A360010ECF54C025E060A840B8E493A359
:10048F00FAE493A3F8E493A3C8C582C8CAC583CA84
:10049F00F0A3C8C582C8CAC583CADFE9DEE780BE3C
:01066C00008D
:00000001FF
