:030000000200A556
:0C00A500787FE4F6D8FD758109020003A5
:0B00B100313233343536373839300037
:10000300E4F50912007CE4F508E5089000B193FFDC
:100013001200C40508E508C3940A40ED7F101200DE
:10002300BC7F101200BC7FE87E0312005E120096B4
:100033008F097FE87E0312005E7F141200BC7F14D9
:0A0043001200BCAF091200C480FED9
:10004D00C2B68F807F037E0012005ED2B47F037E26
:01005D0000A2
:10005E00D3EF9400EE940040147D7B7C00ED1D7078
:0D006E00011CED4C70F7EF1F70E61E80E3E3
:01007B002262
:0800BC00C2B512004DC2B422CE
:0800C400D2B512004DC2B422B6
:10007C00C2A6C2A7C2B47F381200BC7F0F1200BC4C
:0A008C007F061200BC7F800200BC5A
:0E009600D2B6D2B57580F0120058C2B4AF8059
:0100A4002239
:00000001FF
