:0300000002012CCE
:0C012C00787FE4F6D8FD7581090201031C
:1001030075080D12000312011CAD087F0A1200A529
:09011300E4FF1200E98F0880F0FE
:1000C700323031342D372D30372D4D6F6E646179D5
:1000D700002020202031323A32333A343520202094
:0200E7002000F7
:10004F00C2B68F807F037E00120060D2B47F037E22
:01005F0000A0
:10006000D3EF9400EE940040147D7B7C00ED1D7076
:0D007000011CED4C70F7EF1F70E61E80E3E1
:01007D002260
:10000300C2A6C2A7C2B47F381201387F0C120138CE
:100013007F061201387F80120138E4F509E5099063
:1000230000C793FF1201400509E509C3941040ED91
:100033007FC0120138E4F509E5099000D893FF1257
:0B00430001400509E509C3941040EDE1
:01004E00228F
:08013800C2B512004FC2B4224F
:08014000D2B512004FC2B42237
:1000A500ED75F00A84FBED75F00A84AAF0EF24C023
:1000B500FF120138EB2430FF120140EA2430FF0221
:0200C5000140F8
:10007E0012008E0F12008E0F12008E0F12008E0FB6
:10008E00C294D295D297D2968F80C295C2968D8009
:07009E00D296D295D2942204
:1000E900D295D297D296C2948F80C295C2977580C5
:0900F900FFAF80D297D295D2949A
:0101020022DA
:10011C00E4FDFF12007E0F12007E7D200F02008E88
:00000001FF
