:0300000002029465
:0C029400787FE4F6D8FD75811A0202DBC9
:0404A600021600003A
:10020200120320E5174516600302028EFF120480D6
:100212007508008F097F021204807510008F117F0C
:10022200041204807514008F157F06120480750A6B
:10023200008F0B7F071204807512008F137F081244
:100242000480750E008F0F7F09120480750C008FD9
:100252000DAD097B027F0A1203AEAD117B027F074F
:100262001203AEAD157B027F041203AEAF0B120474
:100272000EAD137B017F091203AEAD0F7B017F062A
:100282001203AEAD0D7B017F031203AE1200030217
:02029200020563
:10036C0020323030302D30302D30302D5858582030
:10037C00002020202030303A30303A3030202020FD
:10038C002000585858204D6F6E2054756573576572
:10039C0064205468757246726920536174205375D9
:0203AC006E20C1
:1003DF00C2B68F807F027E001203F0D2B47F037EFD
:0103EF00000D
:1003F000D3EF9400EE940040147D7B7C00ED1D70E3
:0D040000011CED4C70F7EF1F70E61E80E34D
:01040D0022CC
:10032000C2A6C2A7C2B47F381204AF7F0C1204AFBA
:100330007F061204AF7F801204AFE4F51AE51A902D
:10034000036C93FF1204B7051AE51AC3941040ED2D
:100350007FC01204AFE4F51AE51A90037D93FF12F3
:0B03600004B7051AE51AC3941040ED25
:01036B00226F
:0804AF00C2B51203DFC2B42242
:0804B700D2B51203DFC2B4222A
:0203AE00AE0798
:1003B000ED75F00A84F51AED75F00A84A9F0BB0119
:1003C00005EE24808006BB0207EE24C0FF1204AFB6
:0F03D000E51A2430FF1204B7E92430FF0204B706
:02040E00AB073A
:100410007F8C1204AFE4FAEB25E025E0248EF58210
:10042000E43403F583E5822AF582E43583F583E439
:0904300093FF1204B70ABA04DEBE
:0104390022A0
:060463000F120469FD0FF9
:10046900C294D295D297D2968F80C295C2968D802A
:07047900D296D295D2942225
:10048000D295D297D296C2948F80C295C29775802A
:09049000FFAF80D297D295D294FF
:010499002240
:10043A007D32E4FF1204647D3B1204637D111204D1
:10044A00637D040F1204697D150F1204697D080F7C
:09045A001204697D0E0F02046911
:0404AA000218000034
:0C049A00C2A37F327E001203F0D2A32226
:1000030030A00302009A7F0A7E001203F030A0039F
:1000130002009A0519E51970020518640145187064
:1000230012F5167517017FCA1204AF7F0F1204AFC2
:1000330012049AE5196402451870087FC71204AFC9
:1000430012049AE5196403451870087FC41204AFBB
:1000530012049AE51964044518703912049A7FF45E
:100063007E011203F012049A7FF47E011203F01250
:10007300049A7F0C1204AFE4F518F519F516F51779
:10008300AD09FF120469AD117F02120469AD157F3A
:100093000412046930A0FDE519451870030202013A
:1000A30030A10302014F7F057E001203F030A1034C
:1000B30002014F30A1FDE51964014518702A0509B5
:1000C300E50970020508643C45086009C3E5086456
:1000D3008094805005E4F508F509AD097B027F0A99
:1000E3001203AE7FCA1204AFE51964024518702AE1
:1000F3000511E51170020510643C45106009C3E564
:1001030010648094805005E4F510F511AD117B0265
:100113007F071203AE7FC71204AFE51964034518C6
:10012300702A0515E5157002051464184514600955
:10013300C3E514648094805005E4F514F515AD15FA
:100143007B027F041203AE7FC41204AF30A203020A
:1001530002017F057E001203F030A2030202013088
:10016300A2FDE51964014518702CE5091509700213
:100173001508E509643C45086009C3E508648094F3
:10018300805005E4F508F509AD097B027F0A1203E7
:10019300AE7FCA1204AFE51964024518702CE5114D
:1001A300151170021510E511643C45106009C3E593
:1001B30010648094805005E4F510F511AD117B02B5
:1001C3007F071203AE7FC71204AFE5196403451816
:1001D300702CE515151570021514E51564184514F2
:1001E3006009C3E514648094805005E4F514F515A3
:0E01F300AD157B027F041203AE7FC41204AF71
:0102010022DA
:1002A000020202E493A3F8E493A34003F68001F270
:1002B00008DFF48029E493A3F85407240CC8C3335F
:1002C000C4540F4420C8834004F456800146F6DF2E
:1002D000E4800B01020408102040809004A6E47E14
:1002E000019360BCA3FF543F30E509541FFEE49323
:1002F000A360010ECF54C025E060A840B8E493A3EA
:10030000FAE493A3F8E493A3C8C582C8CAC583CA14
:10031000F0A3C8C582C8CAC583CADFE9DEE780BECC
:0104AE00004D
:00000001FF
